:020000020000FC
:0C0000000C942A000C9469000C9442003F
:1000540004E00EBF0FE50DBF0FEF07BB00270ABB7F
:100064000AE005BF00EC0BBF789400271127222774
:10007400BB27AA27DD27CC27FF27EE270C943700C0
:100084000F930FB70F93FF93EF93009164000395C1
:10009400043009F400E000936400F0E0E0E6E00FCF
:1000A4002227F21F1081FF93EF93F0E0EAECE10FB7
:1000B4001127F11F1491EF91FF9118BB000F0395C5
:1000C4000BBBEF91FF910F910FBF0F9118950F93F9
:1000D4000FB70F932F93FF93EF93B0916100A0910B
:1000E4006000D0916300C0916200A395AA3069F4C6
:1000F400A0E0B395B63049F4B0E0C395CA3029F412
:10010400C0E0D395D63009F4D0E0B0936100A09359
:100114006000D0936300C0936200EF91FF910F9150
:060124000FBF0F911895BA
:00000001FF
